:1014C50050617373776F72643A00202020202020CA
:1014D500202000457272204361726400436172648A
:1014E5004E4F2E3A004F50454E00416464204E65E4
:1014F5007720436172640044656C657465204361BF
:101505007264005075742043617264204F6E0053FD
:101515007563636573730044656C6574653A005063
:1015250041535300455252004C6F636B6564004E46
:1015350065772070617373776F72643A004E6F2020
:101545007065726D697373696F6E005265616420B1
:101555004F4B200077656174686572005772697436
:1015650065204F4B200057656C636F6D65004361C7
:06157500726449443A00D3
:1017B40042003814C542003A14CF42003C14D842C7
:1017C400003E14E142004014EA42004214EF420099
:1017D4004414FC4200461508420048151442004ACD
:0C17E400151C4200363039420033000072
:101D12009000357401F0121E19900038E0FEA3E025
:101D2200AA06F97BFF7D017F01121CE5121E031238
:071D32001D6012002680FB7A
:100026007C00900037E0FDE4FF121CB57F057E00E2
:1000360012000E900036E0FD7C007F01121CB57F99
:10004600057E0012000E12157B90004EEFF0700335
:10005600020359E0FBD3940A748094805059C390EC
:100066000030E0940590002FE09400503590004C4D
:10007600E0FEA3E0FF7C007D0A12075890004CEEDC
:10008600F0A3EFF0EB75F00A84E025F0F090004C59
:10009600E03400F0900030E004F0700690002FE0AD
:1000A60004F090004CE0FAA3E0FB9000077405F022
:1000B6007D017F02121DCA90004EE0640B600302B0
:1000C60001C9D3900034E09403900033E0940040DB
:1000D6000302019FE4FF121C14900036E4F0A3EF24
:1000E600F07F01121C14EFFE900036E04EFEA3E0F6
:1000F600FF900036EEF0A3EFF0FF90004CE06E703C
:1001060003A3E06F7032121E627FE87E0312000EB8
:10011600121E721200037BFF7A1579247D077F0178
:10012600121CE5E490004CF0A3F090002FF0A3F031
:10013600900033F0A30201C6900034E004F070068C
:10014600900033E004F07BFF7A1579297D077F0262
:10015600121CE57FE87E0312000E1200037FE87E84
:100166000312000EE490004CF0A3F090002FF0A3D1
:10017600F0900038E0FEA3E0AA06F97BFF7D017F40
:1001860001121CE590003AE0FEA3E0AA06F97BFF07
:100196007D017F02121CE5802A1200037FE87E03A0
:1001A60012000E7BFF7A15792D7D067F01121CE564
:1001B600E490004CF0A3F090002FF0A3F0900033F1
:1001C600F0A3F090004EE0640C703F1200037FF441
:1001D6007E0112000EE490004CF0A3F090002FF088
:1001E600A3F0900038E0FEA3E0AA06F97BFF7D01AC
:1001F6007F01121CE590004CE0FAA3E0FB9000079B
:100206007405F07D017F02121DCA90004EE0640D58
:1002160060030202C0900035E0705490004CF0A3D9
:10022600F01200037FE87E0312000E7BFF7A157939
:10023600347D017F01121CE51212241200037FE8AF
:100246007E0312000E900038E0FEA3E0AA06F97BBA
:10025600FF7D017F01121CE590004CE0FAA3E0FB54
:100266009000077405F07D017F02121DCA804BE4E1
:1002760090004CF0A3F07BFF7A1579427D017F0256
:10028600121CE57FE87E0312000E1200037FE87E53
:100296000312000E900038E0FEA3E0AA06F97BFFE9
:1002A6007D017F01121CE590003AE0FEA3E0AA065C
:1002B600F97BFF7D017F02121CE590004EE0640E83
:1002C600706FFF121C14900036E4F0A3EFF07F016C
:1002D600121C14EFFE900036E04EFEA3E0FF9000E5
:1002E60036EEF0FAA3EFF0AB079000077405F07D49
:1002F600017F02121DCA7FE87E0312000E7BFF7A81
:100306001579507D017F02121CE57FE87E031200FD
:100316000EE490004CF0A3F090002FF0A3F09000B4
:100326003AE0FEA3E0AA06F97BFF7D017F02121CDC
:10033600E590004EE0640F700F121F06121E197B27
:10034600FF7A157959121B9690004EE064107003DF
:04035600120A38222D
:10122400900035E0600302133112157B90004EEFFD
:10123400F060EDE0FBD3940A748094805059C3901D
:101244000030E0940590002FE09400503590004C5D
:10125400E0FEA3E0FF7C007D0A12075890004CEEEC
:10126400F0A3EFF0EB75F00A84E025F0F090004C69
:10127400E03400F0900030E004F0700690002FE0BD
:1012840004F090004CE0FAA3E0FB9000077405F032
:101294007D017F02121DCA90004EE0640B705290D3
:1012A400004CE0FEA3E0FF900036EEF0A3EFF07CEC
:1012B40000FDE4FF121CB57F057E0012000E9000B5
:1012C40036E0FD7C007F01121CB57F057E00120014
:1012D4000E7BFF7A1579617D017F02121CE57FF494
:1012E4007E0112000EE490004CF0A3F0900035044F
:1012F400F090004EE0640C600302122490004CF065
:10130400A3F090002FF0A3F07BFF7A1579347D01D0
:101314007F01121CE590004CE0FAA3E0FB9000076B
:0E1324007405F07D017F02121DCA0212242200
:100A3800E4900031F0A3F0121E52121E91121E19FA
:100A4800E4FF120E0E7F647E0012000E900035E067
:100A580064017012C3900032E0940A900031E0946F
:100A6800005003121AC7120C3E900031E07004A324
:100A7800E0640B6003020C1E900071E0FF900070B0
:100A8800E02FFFE433FE900072E07C002FFFEC3E85
:100A9800FEA3E02FFFEC3E4F7006900003F0807B32
:100AA800900075E0FF900074E02FFFE433FE9000A3
:100AB80076E07C002FFFEC3EFEA3E02FFFEC3E4FDC
:100AC800700790000304F08052900079E0FF9000D6
:100AD80078E02FFFE433FE90007AE07C002FFFECF3
:100AE8003EFEA3E02FFFEC3E4F7008900003740217
:100AF800F0802890007DE0FF90007CE02FFFE43339
:100B0800FE90007EE07C002FFFEC3EFEA3E02FFF6E
:100B1800EC3E4F7006900003020C0F900031E0701D
:100B280004A3E0640B6003020C1520B703020C1544
:100B38007F64FE12000E7B017A00796C7F521216D8
:100B4800A4EF3395E04F70D37B017A0079801213BC
:100B5800FEEF3395E04F70C3900003E01460321449
:100B6800605714607C240370B2900080E09000709D
:100B7800F0900081E0900071F0900082E0900072A7
:100B8800F0900083E0900073F0900031E4F0A380CF
:100B980076900080E0900074F0900081E0900075FD
:100BA800F0900082E0900076F0900083E09000776B
:100BB800F0900031E4F0A3804E900080E09000783F
:100BC800F0900081E0900079F0900082E090007A47
:100BD800F0900083E090007BF0900031E4F0A38077
:100BE80026900080E090007CF0900081E090007DED
:100BF800F0900082E090007EF0900083E090007F0B
:100C0800F0900031E4F0A37403F0020B239000315C
:100C1800A3E0FF120E0E900031E07004A3E064031D
:100C28006003020A4D7FE87E0312000EE490003153
:060C3800F0A3F0020A4DDA
:101E5200438901758A33758CFED28CD2A9D2AF2206
:101AC700121101900052EFF03395E04F70077F023B
:101AD700120E0E802B900052E0FF3395E0FEEF646C
:101AE700014E6012EF64024E600CEF64034E600615
:101AF700EF64044E700A7F01120E0EE4900035F079
:071B07007F647E0002000E66
:100E0E00EF1207F40E37000E45010E89020F9F03F5
:100E1E000EA90A0ED10B0EBD140EE5150F14160FEA
:100E2E0042170F701800000FB51200037BFF7A15E2
:100E3E00796B7D06020FB01200031213327FC012BF
:100E4E001ED190003EE0FEA3E0AA06F97BFF121D24
:100E5E00ED900052E02430FF121D9D900040E0FE08
:100E6E00A3E0AA06F97BFF7D0C7F02121CE5121E81
:100E7E00627FE87E0312000E021E7212000312132E
:100E8E003290003CE0FEA3E0AA06F97BFF7D017FD5
:100E9E0002121CE57FE87E0302000E120003900092
:100EAE0042E0FEA3E0AA06F97BFF7D03020FB0121B
:100EBE000003900044E0FEA3E0AA06F97BFF7D0349
:100ECE00020FB0120003900046E0FEA3E0AA06F95E
:100EDE007BFF7D03020FB012000390004AE0FEA3D9
:100EEE00E0AA06F97BFF7D057F01121CE57FC21289
:100EFE001ED190003EE0FEA3E0AA06F97BFF121D74
:100F0E00ED7F31020F9C12000390004AE0FEA3E039
:100F1E00AA06F97BFF7D057F01121CE57FC2121E1A
:100F2E00D190003EE0FEA3E0AA06F97BFF121DED74
:100F3E007F32805A12000390004AE0FEA3E0AA0618
:100F4E00F97BFF7D057F01121CE57FC2121ED19039
:100F5E00003EE0FEA3E0AA06F97BFF121DED7F33F3
:100F6E00802C12000390004AE0FEA3E0AA06F97B53
:100F7E00FF7D057F01121CE57FC2121ED190003E3F
:100F8E00E0FEA3E0AA06F97BFF121DED7F34021DE1
:100F9E009D120003900048E0FEA3E0AA06F97BFF35
:080FAE007D057F01121CE52204
:061332007B017A007980C6
:0B133800900005EBF0A3EAF0A3E9F041
:101343007F80121ED17BFF7A157973121DEDE49015
:101353000008F0900008E0FFC39404748094804078
:10136300030213FD900005E0FBA3E0FAA3E0F98F6D
:10137300827583001206F7C4540FFFD39409748057
:1013830094804005EF2437801A900005E0FBA3E02A
:10139300FAA3E0F9A3E0F5827583001206F7C454BB
:1013A3000F2430FF121D9D900005E0FBA3E0FAA37C
:1013B300E0F9A3E0F5827583001206F7540FFFD31B
:1013C3009409748094804005EF24378019900005B8
:1013D300E0FBA3E0FAA3E0F9A3E0F5827583001232
:1013E30006F7540F2430FF121D9D7F017E0012006B
:0A13F3000E900008E004F00213560B
:0113FD0022CD
:100C3E0012157B90004EEFF07003020E05E0FF7E62
:100C4E000064017015C3900032E0940A900031E008
:100C5E0094005006E4F0A3740AF0EF64024E706A3A
:100C6E00900031E0FEA3E0FF640A4E700A9000315E
:100C7E00F0A37414F0800EEF64144E7008900031DF
:100C8E00F0A3740AF0900031E0FEA3E0FF64154E6D
:100C9E00700A900031F0A37416F0802EEF64164E99
:100CAE00700A900031F0A37417F0801EEF64174E97
:100CBE00700A900031F0A37418F0800EEF64184E95
:100CCE007008900031F0A37415F090004EE06403AC
:100CDE006003020DF7900031E07004A3E06415701C
:100CEE002F900004F0900004E0FFC39404748094ED
:100CFE0080501474702FF582E43400F583E4F09084
:100D0E000004E004F080DE900031E4F0A37403F000
:100D1E00900031E07004A3E06416702F900004F090
:100D2E00900004E0FFC39404748094805014747493
:100D3E002FF582E43400F583E4F0900004E004F033
:100D4E0080DE900031E4F0A37403F0900031E07087
:100D5E0004A3E06417702F900004F0900004E0FFED
:100D6E00C3940474809480501474782FF582E43404
:100D7E0000F583E4F0900004E004F080DE90003192
:100D8E00E4F0A37403F0900031E07004A3E0641863
:100D9E00702F900004F0900004E0FFC39404748060
:100DAE0094805014747C2FF582E43400F583E4F0C3
:100DBE00900004E004F080DE900031E4F0A37403B0
:100DCE00F0900031E07004A3E0640A7008900031E6
:100DDE00F0A3740BF0900031E07004A3E064147083
:100DEE0008900031F0A37415F090004EE06404708A
:100DFE0006900031F0A3F0900031A3E0FF020E0E3A
:03000B00021B0EC7
:101B0E00C0E0C083C082C0D0758A33758CFE900051
:101B1E0035E0702A900051E004F07006900050E01D
:101B2E0004F0C3900051E09432900050E0940040D5
:101B3E000D9000357401F0900050E4F0A3F0D0D079
:071B4E00D082D083D0E03209
:10000E00EF1FAC0670011E4C600A7D027CEFDCFE19
:04001E00DDFC80EC99
:0100220022BB
:0B1EC600EF1FAC0670011E4C70F622EE
:061E8200C2A58F80D2A76B
:081E88007F027EEFDEFEDFFCAD
:011E9000222F
:0A1ED100C2A6121E82C2A7021E88DC
:101D8400E0FCA3E0FDCFCDCFCECCCE12076A7C0021
:091D94007D0A12076AED2430FFFC
:0A1D9D00D2A6121E82C2A7021E8801
:051DA700EAF0A3EBF0DF
:101DAC00AE07EEFB7A0064017004ED148009EB645D
:0E1DBC00024A7009ED243F4480FF121ED1221E
:101E19007F38121ED17F0C121ED17F06121ED17F70
:041E290001021ED1C3
:080003007F01121ED1021E88CC
:0A1EDB00AC03121DACAF04021D9D04
:0B1CE500900005EBF0A3EAF0A3E9F08B
:101CF000121DACE4FD900005E0FBA3E0FAA3E0F9BF
:101D00008D827583001206F7FF6006121D9D0D80FF
:011D1000E4EE
:011D110022AF
:101DED001206DEFF600F121D9D121E88740129F967
:061DFD00E43AFA80EB223B
:0A187200EF24FFFDEE34FFFC7F0AB7
:0E187C00900008EEF0A3EFF0A3ECF0A3EDF067
:10188A00A3E4F0A304F0E4FBEBFFD390000BE09F8A
:10189A007480F890000AE0648098401E90000CE082
:1018AA00FEA3E0FF900008E0FCA3E0FD12075890B9
:1018BA00000CEEF0A3EFF00B80CE90000CE0FEA33C
:0218CA00E0FF3D
:0118CC0022F9
:031DCA0090000581
:101DCD00121DA7A3E0FAEAFF7E00D394007480945D
:0F1DDD0080400C121872900005121D841A80E7C6
:011DEC0022D4
:031983009000923F
:10198600121DA7C3900092E064809480400F7F2BC5
:10199600121D9DE0FFA3E0900095CF80167F2D12CB
:1019A6001D9D900092E0FEA3E0FFC3E49FFFE49E2E
:1019B600900095F0A3EFF0900094E0FAEAFF7E0025
:1019C600D3940074809480400C1218729000951283
:0519D6001D841A80E7EA
:0119DB0022E9
:031A2D009000A086
:101A3000121DA7A3E0FAEAD3940074809480403B7F
:101A4000EA24FFFDE434FFFC7F107E0012187C9036
:101A500000A0E0FCA3E0FDCFCDCFCECCCE12076A34
:101A6000EF540FFEC3940A74809480EE5004243027
:0B1A700080022437FF121D9D1A80BB6E
:011A7B002248
:031B55009000A558
:101B5800121DA7A3E0FAEAFF7E00D39400748094D4
:101B680080402AEF24FFFDEE34FFFC7F0212187C30
:101B78009000A5E0FCA3E0FDCFCDCFCECCCE1207E0
:0D1B88006AEF54012430FF121D9D1A80C920
:011B9500222D
:101CB500900003EFF0A3ECF0A3EDF0121EEF7FA070
:101CC500121C83121EBA900003E0FF121C83121E21
:101CD500BA900004A3E0FF121C83121EBA021EF87C
:051C1400900003EFF059
:101C1900121EEF7FA0121C83121EBA900003E0FF70
:101C2900121C83121EBA121EEF7FA1121C83121EF0
:101C3900BA121D39900004EFF07F01121EE5121E41
:061C4900F8900004E0FF2A
:011C4F002272
:091EEF00D2A0D2A1C2A0C2A1221E
:071EF800C2A0D2A1D2A0227A
:021C8300AD07AB
:101C8500E4FBEBC394087480948050237E00748039
:101C9500A803088006CEA2E713CE13D8F8FFEDF50A
:0F1CA50082EF558224FF92A0D2A1C2A10B80D35F
:011CB400220D
:101D3900E4FFD2A0FEEEC39408748094805017D2B9
:101D4900A130A00DA8067480088002C313D8FC4FE7
:061D5900FFC2A10E80DFB5
:011D5F002261
:0A1EE500EF24FF92A0D2A1C2A122B7
:0B1EBA00D2A0D2A1A2A0E433FFC2A17D
:011EC50022FA
:10157B00E4900005F075900FAF90EF640F700302CD
:10158B00160D7F147E0012000EAF90EF640F607784
:10159B0075900FAF90EF24F5601324FE6017146065
:1015AB001C2407701E9000057401F0801690000536
:1015BB007402F0800E9000057403F0800690000515
:1015CB007404F07590F0AF90EF2450601324E0603A
:1015DB001824F0601D24707020900005E0F0801935
:1015EB00900005E02404F08010900005E02408F042
:1015FB008007900005E0240CF0AF90EF64F06007DB
:0C160B0080F7E4900005F0900005E0FF7F
:0116170022B0
:1017F0004400700000000044007400000000440039
:0C180000780000000044007C00000000A4
:0D16A400900005EFF0A3EBF0A3EAF0A3E93E
:1016B100121E2D7D077F0D1218D17D037F14121E7E
:1016C100AD900005E090000BF09000227401F0A3B2
:1016D100F0A37400F0A3740BF0A37401F0A37400E1
:1016E100F0A37409F07A00790B12083CEFFD3395F1
:1016F100E04D7037900009E07004A3E06410702B96
:1017010090000BE0FE900006E0FBA3E0FAA3E0F9F5
:10171100EE12072490000CE0FE900006E0FBA3E02F
:0D172100FAA3E0F9900001EE0207367FFE0A
:01172E002298
:0B13FE00900005EBF0A3EAF0A3E9F07B
:10140900E4900009121E2DE4FD7F0D1218D17D8094
:101419007F0E121E3290000C7493F0A37420F0908A
:1014290000227402F07B01A314F0A37400F0A374EA
:101439000CF0A3EBF0A37400F0A3740AF07A00791E
:101449000C7F0C120840900008EFF03395E04F70C4
:101459005EFDEDC3940474809480503A740C2DF5AC
:1014690082E43400F583E0FF900005E0FBA3E0FA95
:10147900A3E0F98D82758300EF120736900009E029
:10148900FF740C2DF582E43400F583E0FEEF6E90D5
:101499000009F00D80BC740C2DF582E43400F5834D
:1014A900E0FF900009E06F600690000874FEF07D8F
:0B14B900807F0E121EAD900008E0FFC7
:0114C4002205
:101BD600D2B600C2B600D2B6007D0F7F011218D170
:101BE600007D3D7F111218D17D1E7F2D1218D1E484
:101BF600FD7F2C1218D17D8D7F2A1218D17D3E7F54
:0E1C06002B1218D17D407F151218D17F0022BD
:101A7C00EF64417040121E2E7D3D7F111218D17DF6
:101A8C00867F171218D17D7F7F261218D17D1E7F7D
:101A9C002D1218D1E4FD7F2C1218D17D8D7F2A12C6
:101AAC0018D17D3E7F2B1218D17F0A7E0012000EBA
:0B1ABC00121E4080037FFF227F0022EB
:06181600AC07AB05E4FE87
:10181C00E4FEC2B3C2B2EF25E0547E4480FF7D08E3
:10182C00EDD39400748094804018EF5480648070E1
:10183C0003D38001C392B4D2B3EF25E0FFC2B31D32
:10184C0080DE7D08EDD39400748094804011D2B377
:10185C00EE25E0FEA2B5E4334EFEC2B31D80E5D208
:05186C00B2D2B3AF068B
:011871002254
:0418CD00E4FD7F01B6
:1018D100C2B3C2B2EF25E0547EFF7E08EED394007E
:1018E100748094804018EF548064807003D3800129
:1018F100C392B4D2B3EF25E0FFC2B31E80DE7E08EF
:10190100EED39400748094804018ED54806480700C
:1019110003D38001C392B4D2B3ED25E0FDC2B31E5F
:0619210080DED2B2D2B359
:01192700229D
:0D1EAD00121816AE07AF04EB4EFD0218D15F
:051E2D00F07D087F08B4
:0E1E3200121816AE07AF04EBF45EFD0218D1D5
:10081A007404900022F0A37401F0A37400F0A3748E
:10082A005AF0A37401F0A37400F0A37458F07A008C
:06083A00795A7B017F0CDE
:1008400090001FEBF0A3EAF0A3E9F090001EEFF098
:1008500090002974FEF0E4A3F0A3F0EF24F46010FC
:1008600024FE701690002A7412F0A37410F0800A0F
:1008700090002A7477F0A37430F090002AE044804E
:10088000FD7F021218D17D807F04121E321218CD16
:100890007D807F0A121EADE490002DF0A3F0900041
:1008A00022E0FF90002DE0FCA3E0FDC39FEC94004C
:1008B000502890001FE0FBA3E0FAA3E0F98D828CA2
:1008C000831206F7FD7F091218D190002EE004F084
:1008D00070CC90002DE004F080C490001EE0FD7FFD
:1008E000011218D1E0640C70077D807F0D121EADDF
:1008F00090002D7407F0A374D0F07F0412181C90A0
:10090000002CEFF090002EE024FFF090002DE0345A
:10091000FFF0E07002A3E0601190002CE0FF20E007
:100920000990002BE0FEEF5E60D07D807F0D121EEF
:100930003290002DE07002A3E07003020A287F06C7
:1009400012181CEF541B6003020A22900029F0A326
:10095000E0FF90002CE05F30E00690002974FFF08B
:1009600090001EE0640C6003020A287F0A12181C23
:1009700090002CEFF07F0C12181CEF5407FD60263E
:10098000E024FFFFE434FFFEEF7803C333CE33CE21
:10099000D8F97C002DFFEC3EF9900026E0FBA3E0A7
:1009A000FAA3E0C9801690002CE075F008A4FF902F
:1009B0000026E0FBA3E0FAA3E0F9E5F08FF01207D0
:1009C000D590002CE0700204F090002CE0D394123B
:1009D0007480948040037412F0E490002DF0A3F032
:1009E00090002CE0FFC390002EE09F90002DE0943B
:1009F0000050357F0912181C900023E0FBA3E0FA99
:100A0000A3E0F990002DE0FCA3E0F5828C83EF12C7
:100A1000073690002EE004F070C690002DE004F040
:100A200080BE90002974FEF07D807F0C121EAD12F6
:070A300018CD900029E0FF42
:010A3700229C
:101E40007F1412181CEF540370077D037F14121EB9
:011E5000ADE4
:011E5100226E
:071EFF007D037F14021E3277
:100FB600900054EBF0A3EAF0A3E9F0900053EDF0B3
:100FC60090005AEFF0A3EDF09000007401F0A374C6
:100FD60000F0A3745CF07B017A00795A7D0212005E
:100FE6000012081A900057EFF03395E04F7014A3E3
:100FF600E07004A3E06404700A90005AE0540F64A1
:101006000A600690005774FEF0900057E0FF339593
:10101600E0FEEF4E600302109F785A7C007D01903F
:101026000054E0FBA3E0FAA3E0F97E007F04120679
:10103600B8E4FFEFC394107480948050239000545A
:10104600E0FBA3E0FAA3E0F98F827583001206F7AE
:10105600FE745A2FF582E43400F583EEF00F80D348
:101066009000007401F0A37400F0A3745EF07B019D
:101076007A00795A7D04120000E4900058F0A3F03B
:10108600740612081C900057EFF03395E0FEEF64EB
:10109600FE7002EEF46002E4F0900057E0FF339534
:1010A600E0FEEF4E704F90005A74B0F0900053E09F
:1010B60090005BF09000007401F0A37400F0A3743C
:1010C6005CF07B017A00795A7D0212000012081A40
:1010D600900057EFF03395E04F7014A3E07004A32F
:1010E600E06404700A90005AE0540F640A600690A7
:0A10F600005774FEF0900057E0FF71
:0111000022CC
:0E1E9100121BD6121EFF121E407F41021A7C49
:0B192800900097EBF0A3EAF0A3E9F0B9
:10193300E4FFEFC3940474809480503390009AE0E2
:10194300FBA3E0FAA3E0F98F827583001206F7FE8A
:10195300900097E0FBA3E0FAA3E0F98F8275830080
:101963001206F7B5060690009DE004F00F80C390C1
:0F197300009DE064047005F0FE7F0122E4FEFF9A
:011982002242
:101101007B017A00796C7F521216A4EF3395E04F80
:1011110060030212187B017A0079801213FEEF330B
:1011210095E04F6003021210900004F0900070E00F
:10113100FF900080E0FE6F702D900071E0FF900045
:1011410081E0B50721900072E0FF900082E0B507D1
:1011510015900073E0FF900083E0B507099000044B
:101161007401F002121E900074E06E702BA3E0FF78
:10117100900081E0B50721900076E0FF900082E0C9
:10118100B50715900077E0FF900083E0B50709905F
:1011910000047402F002121E900078E0FF900080BB
:1011A100E06F702C900079E0FF900081E0B507209E
:1011B10090007AE0FF900082E0B5071490007BE098
:1011C100FF900083E0B507089000047403F0804DA0
:1011D10090007CE0FF900080E06F702C90007DE03B
:1011E100FF900081E0B5072090007EE0FF90008233
:1011F100E0B5071490007FE0FF900083E0B5070899
:101201009000047404F08015E4900004F0800E90C6
:10121100000474FFF0800690000474FEF090000456
:02122100E0FFEC
:0112230022A8
:05180C0042008E000007
:101E0300439850438920758780758DFA858D8BC2E1
:061E1300ACD2AFD28E221A
:0E1E9F00C2ACC2998F993099FDC299D2AC2283
:101C50009000A8EBF0A3EAF0A3E9F09000A8E0FB65
:101C6000A3E0FAA3E0F91206DEFF6016121E9F7FC2
:101C7000057E00121EC69000A9E475F0011207BF90
:031C800080D922E6
:10172F0041542B43495053454E443D302C370041D3
:10173F005445300041542B43574D4F44453D3100E4
:10174F0041542B4349504D55583D310041542B4383
:10175F0049505345525645523D312C38323636009A
:10176F005765656B0053756E6E7900436C6F7564CA
:10177F0079004F76657263617374005261696E7997
:10178F00004475737400466F6767790048617A6526
:10179F000057696E647900436F6C6400486F740082
:0517AF00543A00430064
:041811004100AB00E7
:101E6200C2A3D2A47F067E0012000EC2A3C2A42285
:101E7200D2A3C2A47F067E0012000EC2A3C2A42275
:1019DC00900006EBF0A3EAF0A3E9F0900006E0FB20
:1019EC00A3E0FAA3E0F91206DEFF6016121E9F7F39
:1019FC00057E00121EC6900007E475F0011207BFA9
:101A0C0080D97F057E00121EC67F0D121E9F7F059A
:101A1C007E00121EC67F0A121E9F7FE87E03020004
:011A2C000EAB
:101B9600900003EBF0A3EAF0A3E9F07BFF7A177954
:101BA6002F1219DC900003E0FBA3E0FAA3E0F91280
:101BB60006DEFF6016121E9F7F057E00121EC6906F
:101BC6000004E475F0011207BF80D97F0A021E9F48
:101D60007BFF7A17793E1219DC7BFF7A17794312D1
:101D700019DC7BFF7A17794F1219DC7BFF7A177910
:041D80005B0219DC0D
:031F0600D2AC2238
:0300230002035A7B
:10035A00C0E0C0F0C083C082C0D075D000C000C069
:0D036A0001C002C003C004C005C006C007EA
:100377002098030205CDC2989000ABE02484F58253
:10038700E43400F583E599F0900084E09000ABB485
:100397002B05E004F08002E4F09000ABE0640A7003
:1003A7003290008DE024BFFFE434FFFEEF64144E6B
:1003B7007008121E629000ABE4F090008DE024BF3D
:1003C700FFE434FFFEEF64034E7008121E729000C4
:1003D700ABE4F09000ABE0641760030205CD90003A
:1003E7008EE0FB7D017F01121EDB90008FE0FB7D1D
:1003F700027F01121EDB900090E0FB7D037F01125C
:100407001EDB900091E0FB7D047F01121EDB900054
:1004170092E0FB7D057F01121EDB900093E0FB7DE0
:10042700067F01121EDB900094E0FB7D077F01121F
:100437001EDB900095E0FB7D087F01121EDB90001C
:1004470096E0FB7D097F01121EDB7BFF7A17796F30
:100457007D0B7F01121CE590009AE0FB7D107F0168
:10046700121EDB900097E024BFFFE434FFFEEF6429
:10047700324E700D7BFF7A1779747D017F02121C53
:10048700E5900097E024BFFFE434FFFEEF64224EBF
:10049700700D7BFF7A17797A7D017F02121CE59038
:1004A7000097E024BFFFE434FFFEEF640E4E700DAB
:1004B7007BFF7A1779817D017F02121CE5900097F7
:1004C700E024BFFFE434FFFEEF64114E700D7BFFA5
:1004D7007A17798A7D017F02121CE5900097E02444
:1004E700BFFFE434FFFEEF64034E700D7BFF7A1706
:1004F70079907D017F02121CE5900097E024BFFFF1
:10050700E434FFFEEF64054E700D7BFF7A17799593
:100517007D017F02121CE5900097E024BFFFE434C1
:10052700FFFEEF64274E700D7BFF7A17799B7D01E5
:100537007F02121CE5900097E024BFFFE434FFFE22
:10054700EF64164E700D7BFF7A1779A07D017F024D
:10055700121CE5900097E024BFFFE434FFFEEF6430
:10056700024E700D7BFF7A1779A67D017F02121C60
:10057700E5900097E024BFFFE434FFFEEF64074EE9
:10058700700D7BFF7A1779AB7D017F02121CE57B2B
:10059700FF7A1779AF7D0B7F02121CE5900098E078
:1005A700FB7D0E7F02121EDB900099E0FB7D0F7F23
:1005B70002121EDB7BFF7A1779B27D107F02121CB5
:0605C700E59000ABE4F03A
:1005CD00D007D006D005D004D003D002D001D00082
:0B05DD00D0D0D082D083D0F0D0E0322C
:03000000021618CD
:0C161800787FE4F6D8FD75810702165FAC
:1005E800E709F608DFFA8046E709F208DFFA803EF5
:1005F80088828C83E709F0A3DFFA8032E309F608E2
:10060800DFFA8078E309F208DFFA807088828C8349
:10061800E309F0A3DFFA806489828A83E0A3F608FD
:10062800DFFA805889828A83E0A3F208DFFA804CD7
:1006380080D280FA80C680D4806980F280338010AE
:1006480080A680EA809A80A880DA80E280CA803317
:1006580089828A83ECFAE493A3C8C582C8CCC5838F
:10066800CCF0A3C8C582C8CCC583CCDFE9DEE7805F
:100678000D89828A83E493A3F608DFF9ECFAA9F0DE
:10068800EDFB2289828A83ECFAE0A3C8C582C8CC34
:10069800C583CCF0A3C8C582C8CCC583CCDFEADE4D
:1006A800E880DB89828A83E493A3F208DFF980CCAF
:1006B80088F0EF60010E4E60C388F0ED2402B404A8
:1006C8000050B9F582EB2402B4040050AF2323454F
:0606D80082239006387336
:1006DE00BB010689828A83E0225002E722BBFE021A
:0906EE00E32289828A83E493224D
:1006F700BB010CE58229F582E5833AF583E02250B8
:1007070006E92582F8E622BBFE06E92582F8E22201
:0D071700E58229F582E5833AF583E493221B
:10072400BB010689828A83F0225002F722BBFE01B4
:02073400F322AE
:10073600F8BB010DE58229F582E5833AF583E8F0F9
:10074600225006E92582C8F622BBFE05E92582C8A5
:02075600F2228D
:10075800EF8DF0A4A8F0CF8CF0A428CE8DF0A42EB5
:02076800FE226F
:10076A00BC000BBE0029EF8DF084FFADF022E4CC73
:10077A00F875F008EF2FFFEE33FEEC33FCEE9DEC3C
:10078A00984005FCEE9DFE0FD5F0E9E4CEFD22ED82
:10079A00F8F5F0EE8420D21CFEADF075F008EF2FCC
:1007AA00FFED33FD4007985006D5F0F222C398FDBD
:0507BA000FD5F0EA225A
:1007BF00C5F0F8A3E028F0C5F0F8E58215827002C5
:0607CF001583E038F02262
:1007D500BB010A89828A83F0E5F0A3F0225006F76F
:0F07E50009A7F01922BBFE06F3E5F009F319226C
:1007F400D083D082F8E4937012740193700DA3A394
:1008040093F8740193F5828883E4737402936860A7
:06081400EFA3A3A380DFA7
:10162400021D12E493A3F8E493A34003F68001F2AD
:1016340008DFF48029E493A3F85407240CC8C333C7
:10164400C4540F4420C8834004F456800146F6DF96
:10165400E4800B01020408102040809017B4E47E5B
:10166400019360BCA3FF543F30E509541FFEE4938B
:10167400A360010ECF54C025E060A840B8E493A352
:10168400FAE493A3F8E493A3C8C582C8CAC583CA7D
:10169400F0A3C8C582C8CAC583CADFE9DEE780BE35
:0118150000D2
:00000001FF
